{
  "contractName": "Jokes",
  "abi": [
    {
      "inputs": [],
      "payable": false,
      "stateMutability": "nonpayable",
      "type": "constructor"
    },
    {
      "constant": true,
      "inputs": [
        {
          "internalType": "uint256",
          "name": "",
          "type": "uint256"
        }
      ],
      "name": "jokes",
      "outputs": [
        {
          "internalType": "uint256",
          "name": "id",
          "type": "uint256"
        },
        {
          "internalType": "string",
          "name": "joke",
          "type": "string"
        },
        {
          "internalType": "string",
          "name": "punchline",
          "type": "string"
        }
      ],
      "payable": false,
      "stateMutability": "view",
      "type": "function"
    },
    {
      "constant": true,
      "inputs": [],
      "name": "jokesCount",
      "outputs": [
        {
          "internalType": "uint256",
          "name": "",
          "type": "uint256"
        }
      ],
      "payable": false,
      "stateMutability": "view",
      "type": "function"
    },
    {
      "constant": false,
      "inputs": [
        {
          "internalType": "string",
          "name": "joke",
          "type": "string"
        },
        {
          "internalType": "string",
          "name": "punchline",
          "type": "string"
        }
      ],
      "name": "setJoke",
      "outputs": [],
      "payable": false,
      "stateMutability": "nonpayable",
      "type": "function"
    }
  ],
  "bytecode": "0x6080604052600080553480156200001557600080fd5b506200005a60405180606001604052806028815260200162000a8260289139604051806060016040528060298152602001620011ba602991396200039b60201b60201c565b620000d66040518060400160405280601681526020017f4920696e76656e7465642061206e657720776f726421000000000000000000008152506040518060400160405280600b81526020017f506c616769617269736d210000000000000000000000000000000000000000008152506200039b60201b60201c565b6200011360405180602001604052806000815250604051806102c00160405280610283815260200162000aaa61028391396200039b60201b60201c565b6200017360405180606001604052806030815260200162000f56603091396040518060400160405280601e81526020017f4865206a757374206e65656465642061206c6974746c652073706163652e00008152506200039b60201b60201c565b620001d36040518060600160405280602c815260200162000f86602c91396040518060400160405280601881526020017f42656361757365206974207761732063756c74757265642e00000000000000008152506200039b60201b60201c565b6200023360405180606001604052806037815260200162000dab603791396040518060400160405280600e81526020017f52652d4d6f72736520636f64652e0000000000000000000000000000000000008152506200039b60201b60201c565b6200027760405180606001604052806023815260200162000de26023913960405180606001604052806027815260200162000d5e602791396200039b60201b60201c565b620002b4604051806020016040528060008152506040518061022001604052806101e4815260200162000fb26101e491396200039b60201b60201c565b6200031460405180606001604052806024815260200162001196602491396040518060400160405280600d81526020017f53706f696c6564206d696c6b2e000000000000000000000000000000000000008152506200039b60201b60201c565b6200035860405180606001604052806031815260200162000d2d6031913960405180606001604052806026815260200162000d85602691396200039b60201b60201c565b6200039560405180602001604052806000815250604051806101800160405280610151815260200162000e0561015191396200039b60201b60201c565b620004db565b600080815480929190600101919050555060405180606001604052806000548152602001838152602001828152506001600080548152602001908152602001600020600082015181600001556020820151816001019080519060200190620004059291906200042c565b506040820151816002019080519060200190620004249291906200042c565b509050505050565b828054600181600116156101000203166002900490600052602060002090601f016020900481019282601f106200046f57805160ff1916838001178555620004a0565b82800160010185558215620004a0579182015b828111156200049f57825182559160200191906001019062000482565b5b509050620004af9190620004b3565b5090565b620004d891905b80821115620004d4576000816000905550600101620004ba565b5090565b90565b61059780620004eb6000396000f3fe608060405234801561001057600080fd5b50600436106100415760003560e01c806388bd395f14610046578063a64d499814610198578063bc0fbb21146102b2575b600080fd5b6101966004803603604081101561005c57600080fd5b810190808035906020019064010000000081111561007957600080fd5b82018360208201111561008b57600080fd5b803590602001918460018302840111640100000000831117156100ad57600080fd5b91908080601f016020809104026020016040519081016040528093929190818152602001838380828437600081840152601f19601f8201169050808301925050505050505091929192908035906020019064010000000081111561011057600080fd5b82018360208201111561012257600080fd5b8035906020019184600183028401116401000000008311171561014457600080fd5b91908080601f016020809104026020016040519081016040528093929190818152602001838380828437600081840152601f19601f8201169050808301925050505050505091929192905050506102d0565b005b6101c4600480360360208110156101ae57600080fd5b810190808035906020019092919050505061035d565b604051808481526020018060200180602001838103835285818151815260200191508051906020019080838360005b8381101561020e5780820151818401526020810190506101f3565b50505050905090810190601f16801561023b5780820380516001836020036101000a031916815260200191505b50838103825284818151815260200191508051906020019080838360005b83811015610274578082015181840152602081019050610259565b50505050905090810190601f1680156102a15780820380516001836020036101000a031916815260200191505b509550505050505060405180910390f35b6102ba6104b7565b6040518082815260200191505060405180910390f35b6000808154809291906001019190505550604051806060016040528060005481526020018381526020018281525060016000805481526020019081526020016000206000820151816000015560208201518160010190805190602001906103389291906104bd565b5060408201518160020190805190602001906103559291906104bd565b509050505050565b6001602052806000526040600020600091509050806000015490806001018054600181600116156101000203166002900480601f01602080910402602001604051908101604052809291908181526020018280546001816001161561010002031660029004801561040f5780601f106103e45761010080835404028352916020019161040f565b820191906000526020600020905b8154815290600101906020018083116103f257829003601f168201915b505050505090806002018054600181600116156101000203166002900480601f0160208091040260200160405190810160405280929190818152602001828054600181600116156101000203166002900480156104ad5780601f10610482576101008083540402835291602001916104ad565b820191906000526020600020905b81548152906001019060200180831161049057829003601f168201915b5050505050905083565b60005481565b828054600181600116156101000203166002900490600052602060002090601f016020900481019282601f106104fe57805160ff191683800117855561052c565b8280016001018555821561052c579182015b8281111561052b578251825591602001919060010190610510565b5b509050610539919061053d565b5090565b61055f91905b8082111561055b576000816000905550600101610543565b5090565b9056fea265627a7a72315820f1dff88522feb83c3f42621ea1c9a01ab81bf40aee625bf531677b32379c7a4c64736f6c63430005100032576861742773207468652062657374207468696e672061626f757420537769747a65726c616e643f496e206d79206e65696768626f72686f6f642c20746865726520776173206120636f75706c652077686f2068616420676976656e207468656972207477696e20736f6e732076657279207765697264206e616d65732e204f6e6520776173206e616d65642054726f75626c652c207768696c6520746865206f7468657220626f792773206e616d6520776173204d696e6420596f7572204f776e20427573696e6573732e20536f2c206f6e65206461792074686579207765726520706c6179696e67206869646520616e64207365656b2e204d696e6420596f757220427573696e65737320636f756e74656420746f20612068756e6472656420616e64207468656e2073746172746564206c6f6f6b696e6720666f72206869732062726f746865722e204275742c20736f6d65686f7720686520636f756c646e27742066696e642068696d20616e7977686572652e20486520736177206120706f6c696365206361722070617373696e6720746865206e65696768626f72686f6f642c20736f2068652073746f7070656420697420746f2061736b20666f722068656c702e205768656e2074686520706f6c696365206f6666696365722061736b65642068696d20666f7220686973206e616d652c206865207265706c6965642c20274d696e6420596f7572204f776e20427573696e6573732127204665656c696e6720696e73756c7465642c2074686520706f6c696365206f666669636572207374696c6c2061736b656420706f6c6974656c792077686f20686520776173206c6f6f6b696e6720666f722e204d696e6420596f7572204f776e20427573696e657373207265706c6965642c20274920616d206c6f6f6b696e6720666f722054726f75626c65212757686174206272656564206f6620646f672063616e206a756d7020686967686572207468616e206275696c64696e67733f4865206472616e6b2074686520636f66666565206265666f72652069742077617320636f6f6c2e416e7920646f672c2062656361757365206275696c64696e67732063616e2774206a756d702e5768617420646f20796f752063616c6c20616e2061706f6c6f6779207772697474656e20696e20646f747320616e64206461736865733f57687920646964207468652068697073746572206275726e20686973206d6f7574683f417320612067726f7570206f6620726f626265727320656e7465726564207468652062616e6b2c207468656972206c65616465722077656e7420746f20746865206d616e6167657220616e642061736b65642068696d20746f206f70656e20746865207661756c742e20486520746872656174656e656420746865206d616e6167657220627920736179696e672c2027496620796f752074727920746f20646f20616e797468696e6720736d6172742c20796f752772652066696374696f6e2e2720546865206d616e616765722077617320636f6e667573656420616e642061736b65642068696d2c2027446f6e277420796f75206d65616e2027596f752061726520686973746f7279273f272054686520726f6262657220616e6772696c79207265706c696564206261636b2c2027446f206e6f74206368616e676520746865207375626a6563742c206f6b61793f2744696420796f7520686561722061626f75742074686520636c61757374726f70686f62696320617374726f6e6175743f576879206469642074686520796f6775727420676f20746f20746865206172742065786869626974696f6e3f20492077617320696e20612062617262657273686f70207768656e2061206d616e20616e642068697320796f756e6720736f6e2077616c6b656420696e20746f20676574206120686169726375742e20546865206d616e2061736b6564207468652062617262657220746f20676976652068697320736f6e20612068616972637574207768696c652068652073686f7070656420666f722067726f636572696573206e65617262792e20546865206261726265722066696e697368656420676976696e672074686520686169726375742062757420746865726520776173206e6f207369676e206f6620746865206661746865722e20416e20686f7572207061737365642c2074776f20686f757273207061737365642e2057652066696e616c6c792061736b65642074686520736f6e2077686572652068697320666174686572207761732e2054686520626f792073686f636b656420757320627920736179696e672c202754686174206d616e20776173206e6f74206d79206661746865722e204865206a75737420746f6c64206d65207468617420696620492077616e74656420746f20676574206120667265652068616972637574206174207468652062617262657273686f702c20492073686f756c6420636f6d6520776974682068696d2e275768617420646f20796f75206765742066726f6d20612070616d706572656420636f773f4920646f6e2774206b6e6f772c206275742074686520666c616720697320612062696720706c75732e",
  "source": "// SPDX-License-Identifier: UNLISENCED\r\npragma solidity >=0.4.22 <0.9.0;\r\n\r\ncontract Jokes {\r\n    uint public jokesCount = 0;\r\n\r\n    struct Joke {\r\n        uint id;\r\n        string joke;\r\n        string punchline;\r\n    }\r\n\r\n    mapping(uint => Joke) public jokes;\r\n\r\n    constructor() public {\r\n        setJoke(\"What's the best thing about Switzerland?\", \"I don't know, but the flag is a big plus.\");\r\n        setJoke(\"I invented a new word!\", \"Plagiarism!\");\r\n        setJoke(\"\", \"In my neighborhood, there was a couple who had given their twin sons very weird names. One was named Trouble, while the other boy's name was Mind Your Own Business. So, one day they were playing hide and seek. Mind Your Business counted to a hundred and then started looking for his brother. But, somehow he couldn't find him anywhere. He saw a police car passing the neighborhood, so he stopped it to ask for help. When the police officer asked him for his name, he replied, 'Mind Your Own Business!' Feeling insulted, the police officer still asked politely who he was looking for. Mind Your Own Business replied, 'I am looking for Trouble!'\");\r\n        setJoke(\"Did you hear about the claustrophobic astronaut?\", \"He just needed a little space.\");\r\n        setJoke(\"Why did the yogurt go to the art exhibition?\", \"Because it was cultured.\");\r\n        setJoke(\"What do you call an apology written in dots and dashes?\", \"Re-Morse code.\");\r\n        setJoke(\"Why did the hipster burn his mouth?\", \"He drank the coffee before it was cool.\");\r\n        setJoke(\"\", \" I was in a barbershop when a man and his young son walked in to get a haircut. The man asked the barber to give his son a haircut while he shopped for groceries nearby. The barber finished giving the haircut but there was no sign of the father. An hour passed, two hours passed. We finally asked the son where his father was. The boy shocked us by saying, 'That man was not my father. He just told me that if I wanted to get a free haircut at the barbershop, I should come with him.'\");\r\n        setJoke(\"What do you get from a pampered cow?\", \"Spoiled milk.\");\r\n        setJoke(\"What breed of dog can jump higher than buildings?\", \"Any dog, because buildings can't jump.\");\r\n        setJoke(\"\", \"As a group of robbers entered the bank, their leader went to the manager and asked him to open the vault. He threatened the manager by saying, 'If you try to do anything smart, you're fiction.' The manager was confused and asked him, 'Don't you mean 'You are history'?' The robber angrily replied back, 'Do not change the subject, okay?'\");\r\n    }\r\n\r\n    function setJoke(string memory joke, string memory punchline) public {\r\n        jokesCount++;\r\n        jokes[jokesCount] = Joke(jokesCount, joke, punchline);\r\n    }\r\n}",
  "sourcePath": "C:\\Users\\gener\\OneDrive\\Desktop\\Github\\solidity-jokes\\contracts\\Jokes.sol",
  "compiler": {
    "name": "solc",
    "version": "0.5.16+commit.9c3226ce.Emscripten.clang"
  },
  "schemaVersion": "3.4.4",
  "updatedAt": "2022-02-07T04:03:00.108Z",
  "networkType": "ethereum",
  "devdoc": {
    "methods": {}
  },
  "userdoc": {
    "methods": {}
  }
}