{
  "contractName": "Jokes",
  "abi": [
    {
      "inputs": [],
      "payable": false,
      "stateMutability": "nonpayable",
      "type": "constructor"
    },
    {
      "constant": true,
      "inputs": [
        {
          "internalType": "uint256",
          "name": "",
          "type": "uint256"
        }
      ],
      "name": "jokes",
      "outputs": [
        {
          "internalType": "uint256",
          "name": "id",
          "type": "uint256"
        },
        {
          "internalType": "string",
          "name": "joke",
          "type": "string"
        },
        {
          "internalType": "string",
          "name": "punchline",
          "type": "string"
        }
      ],
      "payable": false,
      "stateMutability": "view",
      "type": "function"
    },
    {
      "constant": true,
      "inputs": [],
      "name": "jokesCount",
      "outputs": [
        {
          "internalType": "uint256",
          "name": "",
          "type": "uint256"
        }
      ],
      "payable": false,
      "stateMutability": "view",
      "type": "function"
    },
    {
      "constant": false,
      "inputs": [
        {
          "internalType": "string",
          "name": "joke",
          "type": "string"
        },
        {
          "internalType": "string",
          "name": "punchline",
          "type": "string"
        }
      ],
      "name": "setJoke",
      "outputs": [],
      "payable": false,
      "stateMutability": "nonpayable",
      "type": "function"
    }
  ],
  "bytecode": "0x60806040526000805534801561001457600080fd5b5061008f6040518060400160405280600481526020017f636f6f6c000000000000000000000000000000000000000000000000000000008152506040518060400160405280600581526020017f6265616e7300000000000000000000000000000000000000000000000000000081525061009460201b60201c565b6101c6565b6000808154809291906001019190505550604051806060016040528060005481526020018381526020018281525060016000805481526020019081526020016000206000820151816000015560208201518160010190805190602001906100fc929190610121565b506040820151816002019080519060200190610119929190610121565b509050505050565b828054600181600116156101000203166002900490600052602060002090601f016020900481019282601f1061016257805160ff1916838001178555610190565b82800160010185558215610190579182015b8281111561018f578251825591602001919060010190610174565b5b50905061019d91906101a1565b5090565b6101c391905b808211156101bf5760008160009055506001016101a7565b5090565b90565b610597806101d56000396000f3fe608060405234801561001057600080fd5b50600436106100415760003560e01c806388bd395f14610046578063a64d499814610198578063bc0fbb21146102b2575b600080fd5b6101966004803603604081101561005c57600080fd5b810190808035906020019064010000000081111561007957600080fd5b82018360208201111561008b57600080fd5b803590602001918460018302840111640100000000831117156100ad57600080fd5b91908080601f016020809104026020016040519081016040528093929190818152602001838380828437600081840152601f19601f8201169050808301925050505050505091929192908035906020019064010000000081111561011057600080fd5b82018360208201111561012257600080fd5b8035906020019184600183028401116401000000008311171561014457600080fd5b91908080601f016020809104026020016040519081016040528093929190818152602001838380828437600081840152601f19601f8201169050808301925050505050505091929192905050506102d0565b005b6101c4600480360360208110156101ae57600080fd5b810190808035906020019092919050505061035d565b604051808481526020018060200180602001838103835285818151815260200191508051906020019080838360005b8381101561020e5780820151818401526020810190506101f3565b50505050905090810190601f16801561023b5780820380516001836020036101000a031916815260200191505b50838103825284818151815260200191508051906020019080838360005b83811015610274578082015181840152602081019050610259565b50505050905090810190601f1680156102a15780820380516001836020036101000a031916815260200191505b509550505050505060405180910390f35b6102ba6104b7565b6040518082815260200191505060405180910390f35b6000808154809291906001019190505550604051806060016040528060005481526020018381526020018281525060016000805481526020019081526020016000206000820151816000015560208201518160010190805190602001906103389291906104bd565b5060408201518160020190805190602001906103559291906104bd565b509050505050565b6001602052806000526040600020600091509050806000015490806001018054600181600116156101000203166002900480601f01602080910402602001604051908101604052809291908181526020018280546001816001161561010002031660029004801561040f5780601f106103e45761010080835404028352916020019161040f565b820191906000526020600020905b8154815290600101906020018083116103f257829003601f168201915b505050505090806002018054600181600116156101000203166002900480601f0160208091040260200160405190810160405280929190818152602001828054600181600116156101000203166002900480156104ad5780601f10610482576101008083540402835291602001916104ad565b820191906000526020600020905b81548152906001019060200180831161049057829003601f168201915b5050505050905083565b60005481565b828054600181600116156101000203166002900490600052602060002090601f016020900481019282601f106104fe57805160ff191683800117855561052c565b8280016001018555821561052c579182015b8281111561052b578251825591602001919060010190610510565b5b509050610539919061053d565b5090565b61055f91905b8082111561055b576000816000905550600101610543565b5090565b9056fea265627a7a723158203d328e67b88c318c504c52c2584ef8403c75b3924873cbeaea4f1d410f9702d964736f6c63430005100032",
  "source": "// SPDX-License-Identifier: UNLISENCED\r\npragma solidity >=0.4.22 <0.9.0;\r\n\r\ncontract Jokes {\r\n    uint public jokesCount = 0;\r\n\r\n    struct Joke {\r\n        uint id;\r\n        string joke;\r\n        string punchline;\r\n    }\r\n\r\n    mapping(uint => Joke) public jokes;\r\n\r\n    constructor() public {\r\n        setJoke(\"cool\", \"beans\");\r\n    }\r\n\r\n    function setJoke(string memory joke, string memory punchline) public {\r\n        jokesCount++;\r\n        jokes[jokesCount] = Joke(jokesCount, joke, punchline);\r\n    }\r\n}",
  "sourcePath": "C:\\Users\\gener\\OneDrive\\Desktop\\Github\\solidity-jokes\\contracts\\Jokes.sol",
  "compiler": {
    "name": "solc",
    "version": "0.5.16+commit.9c3226ce.Emscripten.clang"
  },
  "schemaVersion": "3.4.4",
  "updatedAt": "2022-01-18T22:35:04.361Z",
  "networkType": "ethereum",
  "devdoc": {
    "methods": {}
  },
  "userdoc": {
    "methods": {}
  }
}